:100000000C9465000C948D000C948D000C948D0064
:100010000C948D000C948D000C948D000C948D002C
:100020000C948D000C948D000C948D000C948D001C
:100030000C948D000C948D000C948D000C948D000C
:100040000C9407020C948D000C9477020C945102CE
:100050000C948D000C948D000C948D000C948D00EC
:100060000C948D000C948D000000000024002700EB
:100070002A005353523A4F4646005353523A4F4E7A
:100080000000000000250028002B000404040404E4
:100090000404040202020202020303030303030135
:1000A000020408102040800102040810200102040C
:1000B00008102000000008000201000003040700EF
:1000C0000000000000000000B50311241FBECFEFA8
:1000D000D8E0DEBFCDBF11E0A0E0B1E0E4EDF7E095
:1000E00002C005900D92A631B107D9F721E0A6E133
:1000F000B1E001C01D92A13CB207E1F710E0C5E6F6
:10010000D0E004C02197FE010E94E203C436D1076B
:10011000C9F70E94A9020C94E8030C940000E6EBD6
:10012000F0E02491E2EAF0E09491EEE8F0E0E4916E
:10013000EE23C9F0222339F0233001F1A8F4213055
:1001400019F1223029F1F0E0EE0FFF1FEF57FF4FBA
:10015000A591B4912FB7F894EC91811126C0909598
:100160009E239C932FBF08952730A9F02830C9F013
:10017000243049F7209180002F7D03C0209180001A
:100180002F7720938000DFCF24B52F7724BDDBCFDE
:1001900024B52F7DFBCF2091B0002F772093B000A6
:1001A000D2CF2091B0002F7DF9CF9E2BDACFAF9226
:1001B000BF92CF92DF92EF92FF920F931F93CF9354
:1001C000DF936C017B018B01040F151FEB015E01B6
:1001D000AE18BF08C017D10759F06991D601ED914B
:1001E000FC910190F081E02DC6010995892B79F7EA
:1001F000C501DF91CF911F910F91FF90EF90DF909C
:10020000CF90BF90AF90089542E050E062E171E07E
:1002100084E291E00C94D700FC01538D448D252F8E
:1002200030E0842F90E0821B930B541710F0CF9690
:10023000089501970895FC01918D828D981761F0C2
:10024000A28DAE0FBF2FB11D5D968C91928D9F5FD9
:100250009F73928F90E008958FEF9FEF0895FC01B8
:10026000918D828D981731F0828DE80FF11D858D6B
:1002700090E008958FEF9FEF0895FC01918D228DFE
:10028000892F90E0805C9F4F821B91098F73992783
:10029000089584E291E00E943D0121E0892B09F458
:1002A00020E0822F089580E090E0892B29F00E94C1
:1002B000490181110C9400000895FC01A48DA80F40
:1002C000B92FB11DA35ABF4F2C91848D90E0019698
:1002D0008F739927848FA689B7892C93A089B189B8
:1002E0008C91837080648C93938D848D981306C059
:1002F0000288F389E02D80818F7D80830895EF92BD
:10030000FF920F931F93CF93DF93EC0181E0888FCF
:100310009B8D8C8D98131AC0E889F989808185FF9F
:1003200015C09FB7F894EE89FF896083E889F98941
:1003300080818370806480839FBF81E090E0DF9143
:10034000CF911F910F91FF90EF900895F62E0B8D96
:1003500010E00F5F1F4F0F731127E02E8C8D8E1151
:100360000CC00FB607FCFACFE889F989808185FFB8
:10037000F5CFCE010E945D01F1CFEB8DEC0FFD2F8B
:10038000F11DE35AFF4FF0829FB7F8940B8FEA8973
:10039000FB8980818062CFCF0F931F93CF93DF9330
:1003A0008C01D0E0C0E0F801EC0FFD1F64916623E2
:1003B00041F084E291E00E947F01892B11F02196A7
:1003C000F2CFCE01DF91CF911F910F910895CF937E
:1003D000DF93EC01888D8823B9F0AA89BB89E8896D
:1003E000F9898C9185FD03C0808186FD0DC00FB613
:1003F00007FCF7CF8C9185FFF2CF808185FFEDCF91
:10040000CE010E945D01E9CFDF91CF9108951F9247
:100410000F920FB60F9211242F933F938F939F93B8
:10042000AF93BF938091200190912101A09122016F
:10043000B091230130911F0123E0230F2D3758F590
:100440000196A11DB11D20931F018093200190935F
:100450002101A0932201B093230180911B0190916F
:100460001C01A0911D01B0911E010196A11DB11D9D
:1004700080931B0190931C01A0931D01B0931E015A
:10048000BF91AF919F918F913F912F910F900FBE90
:100490000F901F90189526E8230F0296A11DB11DFD
:1004A000D2CF1F920F920FB60F9211242F933F932A
:1004B0004F935F936F937F938F939F93AF93BF936C
:1004C000EF93FF9384E291E00E945D01FF91EF9131
:1004D000BF91AF919F918F917F916F915F914F915C
:1004E0003F912F910F900FBE0F901F9018951F9264
:1004F0000F920FB60F9211242F938F939F93EF9328
:10050000FF93E0913401F09135018081E0913A014F
:10051000F0913B0182FD1BC0908180913D018F5F76
:100520008F7320913E01821741F0E0913D01F0E090
:10053000EC5DFE4F958F80933D01FF91EF919F9170
:100540008F912F910F900FBE0F901F901895808163
:10055000F4CF789484B5826084BD84B5816084BD15
:1005600085B5826085BD85B5816085BD80916E0051
:10057000816080936E001092810080918100826082
:1005800080938100809181008160809381008091BF
:1005900080008160809380008091B10084608093AE
:1005A000B1008091B00081608093B00080917A00AA
:1005B000846080937A0080917A00826080937A00D0
:1005C00080917A00816080937A0080917A008068BF
:1005D00080937A001092C100E2EAF0E02491EEE804
:1005E000F0E08491882399F090E0880F991FFC0136
:1005F000E859FF4FA591B491FC01EF57FF4F85914A
:1006000094918FB7F894EC91E22BEC938FBF1092FA
:100610001A0180E00E948F00E0913401F0913501D1
:1006200082E08083E0913001F09131011082E0910D
:100630003201F09133018FEC808310923C01E09104
:100640003801F091390186E08083E0913601F09124
:100650003701808180618083E0913601F09137011C
:10066000808188608083E0913601F091370180813C
:1006700080688083E0913601F091370180818F7D21
:1006800080832FB7F8948091200190912101A0914F
:100690002201B09123012FBF80931601909317017F
:1006A000A0931801B0931901C0E0D0E011E084E2FA
:1006B00091E00E943D01892B11F110931A0184E20F
:1006C00091E00E941B0181E00E948F008AE790E088
:1006D0000E94CC010E9404012FB7F8948091200160
:1006E00090912101A0912201B09123012FBF80930D
:1006F000160190931701A0931801B09319018091EE
:100700001A01882339F12FB7F89480912001909134
:100710002101A0912201B09123012FBF4091160128
:10072000509117016091180170911901841B950B6C
:10073000A60BB70B803E9349AF4FBF4F58F01092B6
:100740001A0180E00E948F0082E790E00E94CC01B5
:100750000E940401209709F4AACF0E94490188232E
:1007600009F4A5CF0E940000A2CFE4E2F1E01382D9
:10077000128288EE93E0A0E0B0E084839583A683A4
:10078000B78384E091E09183808385EC90E0958746
:10079000848784EC90E09787868780EC90E0918B4B
:1007A000808B81EC90E0938B828B82EC90E0958B38
:1007B000848B86EC90E0978B868B118E128E138E35
:1007C000148E0895EE0FFF1F0590F491E02D09940B
:0407D000F894FFCFCB
:1007D400000000007F01D7000C01E7013D011B016F
:0607E4002F010D0A0000C8
:00000001FF
